{
  "contractName": "CarRental",
  "abi": [
    {
      "anonymous": false,
      "inputs": [
        {
          "indexed": false,
          "internalType": "uint256",
          "name": "carId",
          "type": "uint256"
        },
        {
          "indexed": false,
          "internalType": "string",
          "name": "name",
          "type": "string"
        },
        {
          "indexed": false,
          "internalType": "address",
          "name": "owner",
          "type": "address"
        }
      ],
      "name": "CarAdded",
      "type": "event"
    },
    {
      "anonymous": false,
      "inputs": [
        {
          "indexed": false,
          "internalType": "uint256",
          "name": "carId",
          "type": "uint256"
        },
        {
          "indexed": false,
          "internalType": "address",
          "name": "renter",
          "type": "address"
        }
      ],
      "name": "CarRented",
      "type": "event"
    },
    {
      "anonymous": false,
      "inputs": [
        {
          "indexed": false,
          "internalType": "uint256",
          "name": "carId",
          "type": "uint256"
        }
      ],
      "name": "CarReturned",
      "type": "event"
    },
    {
      "constant": true,
      "inputs": [
        {
          "internalType": "uint256",
          "name": "",
          "type": "uint256"
        }
      ],
      "name": "cars",
      "outputs": [
        {
          "internalType": "uint256",
          "name": "carId",
          "type": "uint256"
        },
        {
          "internalType": "string",
          "name": "name",
          "type": "string"
        },
        {
          "internalType": "address",
          "name": "owner",
          "type": "address"
        },
        {
          "internalType": "bool",
          "name": "available",
          "type": "bool"
        },
        {
          "internalType": "address",
          "name": "renter",
          "type": "address"
        }
      ],
      "payable": false,
      "stateMutability": "view",
      "type": "function"
    },
    {
      "constant": true,
      "inputs": [],
      "name": "totalCars",
      "outputs": [
        {
          "internalType": "uint256",
          "name": "",
          "type": "uint256"
        }
      ],
      "payable": false,
      "stateMutability": "view",
      "type": "function"
    },
    {
      "constant": false,
      "inputs": [
        {
          "internalType": "string",
          "name": "_name",
          "type": "string"
        }
      ],
      "name": "addCar",
      "outputs": [],
      "payable": false,
      "stateMutability": "nonpayable",
      "type": "function"
    },
    {
      "constant": false,
      "inputs": [
        {
          "internalType": "uint256",
          "name": "_carId",
          "type": "uint256"
        }
      ],
      "name": "rentCar",
      "outputs": [],
      "payable": false,
      "stateMutability": "nonpayable",
      "type": "function"
    },
    {
      "constant": false,
      "inputs": [
        {
          "internalType": "uint256",
          "name": "_carId",
          "type": "uint256"
        }
      ],
      "name": "returnCar",
      "outputs": [],
      "payable": false,
      "stateMutability": "nonpayable",
      "type": "function"
    }
  ],
  "bytecode": "0x6080604052600060015534801561001557600080fd5b506109c4806100256000396000f3fe608060405234801561001057600080fd5b50600436106100575760003560e01c806317f956e01461005c578063214e563c1461008a57806363f71d8b146100a8578063e1e8aab714610121578063f7746e361461014f575b600080fd5b6100886004803603602081101561007257600080fd5b810190808035906020019092919050505061026e565b005b6100926103e4565b6040518082815260200191505060405180910390f35b61011f600480360360208110156100be57600080fd5b81019080803590602001906401000000008111156100db57600080fd5b8201836020820111156100ed57600080fd5b8035906020019184600183028401116401000000008311171561010f57600080fd5b90919293919293905050506103ea565b005b61014d6004803603602081101561013757600080fd5b8101908080359060200190929190505050610628565b005b61017b6004803603602081101561016557600080fd5b81019080803590602001909291905050506107ad565b60405180868152602001806020018573ffffffffffffffffffffffffffffffffffffffff1673ffffffffffffffffffffffffffffffffffffffff168152602001841515151581526020018373ffffffffffffffffffffffffffffffffffffffff1673ffffffffffffffffffffffffffffffffffffffff168152602001828103825286818151815260200191508051906020019080838360005b8381101561022f578082015181840152602081019050610214565b50505050905090810190601f16801561025c5780820380516001836020036101000a031916815260200191505b50965050505050505060405180910390f35b3373ffffffffffffffffffffffffffffffffffffffff1660008083815260200190815260200160002060030160009054906101000a900473ffffffffffffffffffffffffffffffffffffffff1673ffffffffffffffffffffffffffffffffffffffff1614610327576040517f08c379a000000000000000000000000000000000000000000000000000000000815260040180806020018281038252602281526020018061096e6022913960400191505060405180910390fd5b600160008083815260200190815260200160002060020160146101000a81548160ff021916908315150217905550600080600083815260200190815260200160002060030160006101000a81548173ffffffffffffffffffffffffffffffffffffffff021916908373ffffffffffffffffffffffffffffffffffffffff1602179055507fd9188e305dee9c23fa1cc9b07058ae9500862da7079cc5ba9df28045ae2f1d1e816040518082815260200191505060405180910390a150565b60015481565b6000600160008154809291906001019190505590506040518060a0016040528082815260200184848080601f016020809104026020016040519081016040528093929190818152602001838380828437600081840152601f19601f8201169050808301925050505050505081526020013373ffffffffffffffffffffffffffffffffffffffff168152602001600115158152602001600073ffffffffffffffffffffffffffffffffffffffff168152506000808381526020019081526020016000206000820151816000015560208201518160010190805190602001906104d29291906108c8565b5060408201518160020160006101000a81548173ffffffffffffffffffffffffffffffffffffffff021916908373ffffffffffffffffffffffffffffffffffffffff16021790555060608201518160020160146101000a81548160ff02191690831515021790555060808201518160030160006101000a81548173ffffffffffffffffffffffffffffffffffffffff021916908373ffffffffffffffffffffffffffffffffffffffff1602179055509050507f2609ae3c2619e55baca547d0d1ccb2409e7ede8f6f4e979e010c173dff1ccbad8184843360405180858152602001806020018373ffffffffffffffffffffffffffffffffffffffff1673ffffffffffffffffffffffffffffffffffffffff1681526020018281038252858582818152602001925080828437600081840152601f19601f8201169050808301925050509550505050505060405180910390a1505050565b60008082815260200190815260200160002060020160149054906101000a900460ff166106bd576040517f08c379a00000000000000000000000000000000000000000000000000000000081526004018080602001828103825260148152602001807f436172206973206e6f7420617661696c61626c6500000000000000000000000081525060200191505060405180910390fd5b600080600083815260200190815260200160002060020160146101000a81548160ff0219169083151502179055503360008083815260200190815260200160002060030160006101000a81548173ffffffffffffffffffffffffffffffffffffffff021916908373ffffffffffffffffffffffffffffffffffffffff1602179055507f7d0805628acb0d2b0462559b11ff2ca0f8e8aa2b6f9a86e6dea0073285ea07368133604051808381526020018273ffffffffffffffffffffffffffffffffffffffff1673ffffffffffffffffffffffffffffffffffffffff1681526020019250505060405180910390a150565b6000602052806000526040600020600091509050806000015490806001018054600181600116156101000203166002900480601f01602080910402602001604051908101604052809291908181526020018280546001816001161561010002031660029004801561085f5780601f106108345761010080835404028352916020019161085f565b820191906000526020600020905b81548152906001019060200180831161084257829003601f168201915b5050505050908060020160009054906101000a900473ffffffffffffffffffffffffffffffffffffffff16908060020160149054906101000a900460ff16908060030160009054906101000a900473ffffffffffffffffffffffffffffffffffffffff16905085565b828054600181600116156101000203166002900490600052602060002090601f016020900481019282601f1061090957805160ff1916838001178555610937565b82800160010185558215610937579182015b8281111561093657825182559160200191906001019061091b565b5b5090506109449190610948565b5090565b61096a91905b8082111561096657600081600090555060010161094e565b5090565b9056fe596f7520617265206e6f74207468652072656e746572206f66207468697320636172a265627a7a72315820d29831b1c88c1fe7720665147343b9f53fff0fc70165470c84e8bdd81be6cd3664736f6c63430005100032",
  "source": "// SPDX-License-Identifier: MIT\r\npragma solidity >=0.4.22 <=0.8.21;\r\n\r\ncontract CarRental {\r\n    struct Car {\r\n        uint256 carId; // Updated: Added carId field\r\n        string name;\r\n        address owner;\r\n        bool available;\r\n        address renter;\r\n    }\r\n\r\n    mapping(uint256 => Car) public cars;\r\n    uint256 public totalCars = 0; // Updated: Initialize totalCars to 0\r\n\r\n    event CarAdded(uint256 carId, string name, address owner);\r\n    event CarRented(uint256 carId, address renter);\r\n    event CarReturned(uint256 carId);\r\n\r\n    // Function to add a new car\r\n    function addCar(string calldata _name) external {\r\n        uint256 carId = totalCars++;\r\n        cars[carId] = Car(\r\n            carId,\r\n            _name,\r\n            msg.sender,\r\n            true,\r\n            address(0x0000000000000000000000000000000000000000)\r\n        );\r\n        emit CarAdded(carId, _name, msg.sender);\r\n    }\r\n\r\n    // Function to rent a car\r\n    function rentCar(uint256 _carId) external {\r\n        require(cars[_carId].available, \"Car is not available\");\r\n        cars[_carId].available = false;\r\n        cars[_carId].renter = msg.sender;\r\n        emit CarRented(_carId, msg.sender);\r\n    }\r\n\r\n    // Function to return a rented car\r\n    function returnCar(uint256 _carId) external {\r\n        require(\r\n            cars[_carId].renter == msg.sender,\r\n            \"You are not the renter of this car\"\r\n        );\r\n        cars[_carId].available = true;\r\n        cars[_carId].renter = address(0);\r\n        emit CarReturned(_carId);\r\n    }\r\n}\r\n",
  "sourcePath": "C:\\Users\\user\\Desktop\\Blockchain Project\\contracts\\CarRental.sol",
  "compiler": {
    "name": "solc",
    "version": "0.5.16+commit.9c3226ce.Emscripten.clang"
  },
  "schemaVersion": "3.4.16",
  "updatedAt": "2024-04-28T13:17:01.019Z",
  "networkType": "ethereum",
  "devdoc": {
    "methods": {}
  },
  "userdoc": {
    "methods": {}
  }
}